:020000040000FA
:0A000000020C030210FD75E4322229
:07000B00020FF175EF042262
:100013000210F7E4F527E4FDAF27120F190527E5D2
:0700230027C3948040F02286
:03002B00020D5B68
:10003300020AD5E59154045391FB7595F87594061E
:0C0043007593F8759206439104429122D7
:10005300020A2CAFA775A71053E67FAD5EAC5D43D4
:10006300E6808FA7AE04AF052275E68075A86722E8
:1000730002106720005468656F2026204A6F686E5F
:100083000053746F7077617463682050726F6A6590
:100093006374000020505020C060601040000000D6
:1000A300000000702070F810F830F870700000083D
:1000B3000080707070F070E0F8F870887038888095
:1000C300888870F070F078F88888888888F87000DD
:1000D3007020004000800008003000802010806005
:1000E300000000000000004000000000000030207D
:1000F300600000000000000020505078C8902020CD
:10010300202020000000008860881030804008888C
:10011300886060100040880888888890808088887C
:1001230020109080D888888888888020888888884C
:1001330088084000105000200080000800487880A4
:1001430000008020000000000000004000000000CC
:100153000000402010400000000000002050F88004
:1001630010A0404010A8200000000898200820504C
:10017300F080108888606020F820080888888088CC
:10018300808080882010A080A8C8888888888020E4
:1001930088888850881040801088001070B070687C
:1001A300704088B060309020D0B070F068B070E0DC
:1001B3008888888888F8402010A800000000000084
:1001C30020005070204000401070F800F80010A884
:1001D3002010109008F02070780000400010106884
:1001E30088F08088F0F0B8F82010C080A8A888F0C4
:1001F30088F070208888A82050204040100000001C
:1002030008C8809888E088C82010A020A8C88888DB
:1002130098C8804088888850881080200810000083
:10022300000000000000F80840A8004010A820606B
:10023300000020C8202008F8088840880860602053
:10024300F82020A8F8888088808088882010A080E3
:1002530088988880A8A008208888A850204040203B
:100263001000000078888088F84078882010C0202B
:10027300A88888F0788070408888A820782040205B
:100283001000000000000000000050F098900020D3
:1002930020202020006040882040881088884088E3
:1002A30010602010004000A888888890808088888B
:1002B3002090908088888880909008208850A88813
:1002C30020804010100000008888888880400888BB
:1002D3002090A02088888880088008489850A850DB
:1002E30008404020100000000000000020005020C3
:1002F30018680010400000400060807070F87010B3
:1003030070704070600040080080207088F070E0DA
:10031300F8807088706088F8888870806888F0201A
:100323007020508820F870087000FC0078F0707816
:100333007040708870609070888870800880F0309A
:100343006820508870F83020600000000000000032
:10035300000000000000000000000000000000009A
:10036300000000000000000000000000000000008A
:10037300000000000000000000000000000000007A
:10038300000000000000000000000000000000006A
:10039300000000000000000000000000000000005A
:1003A300000000000000000000000000000000004A
:1003B30000000000000000000000000000018003B6
:1003C300C007E0018001800180018001800180017C
:1003D3008001800000000000000000000000800099
:1003E300C0FFE0FFE000C00080000000000000004C
:1003F30000000001800180018001800180018001F3
:1004030080018007E003C0018000000000000000BD
:1004130000000000000000000000000000010003D5
:100423000007FF07FF0300010000000000000000B9
:1004330000000000000000000000000000000001B8
:100443008003C003C0018000000000000000000022
:100453000000000000000000000000000000000099
:100463000000000000000000000000000C000E006F
:100473000700020000000000000000000000000070
:10048300000000000000000000000030007000E0E9
:1004930000400000020007000E000C0000000000F6
:1004A3000000000000000000000000000000000049
:1004B3000000004000E00070003000000000000079
:1004C3000000000000000000000000000000000029
:1004D300000000018003C007E00FF01FF83FFC7F1E
:1004E300FEFFFFFFFF07E007E007E007E007E00785
:1004F300E007E0018001C001E001F001F8FFFCFF2B
:10050300FEFFFFFFFFFFFEFFFC01F801F001E0012A
:10051300C0018007E007E007E007E007E007E00726
:10052300E0FFFFFFFF7FFE3FFC1FF80FF007E00334
:10053300C001800180038007800F801F803FFF7F01
:10054300FFFFFFFFFF7FFF3FFF1F800F8007800339
:100553008001800000000003C00FF01FF81FF83F68
:10056300FC3FFC3FFC3FFC1FF81FF80FF003C000EB
:100573000000000000000000000000000000000078
:100583000001FC01F801F001F801FC01BE011F00AC
:100593000F00060000000000000000000000000043
:1005A300003F801F800F801F803F807D80F880F098
:1005B3000060000006000F011F01BE01FC01F801ED
:1005C300F001F801FC000000000000000000000042
:1005D3000000006000F000F8807D803F801F800FE6
:1005E300801F803F8000000000000000000000002A
:1005F300000000BB010689828A83E0225002E722C1
:10060300BBFE02E32289828A83E49322BB010CE5C9
:100613008229F582E5833AF583E0225006E92582B3
:10062300F8E622BBFE06E92582F8E222E58229F5F7
:1006330082E5833AF583E49322F8BB010DE5822931
:10064300F582E5833AF583E8F0225006E92582C86E
:10065300F622BBFE05E92582C8F222EF8DF0A4A89D
:10066300F0CF8CF0A428CE8DF0A42EFE22BC000B7C
:10067300BE0029EF8DF084FFADF022E4CCF875F0D5
:1006830008EF2FFFEE33FEEC33FCEE9DEC984005B4
:10069300FCEE9DFE0FD5F0E9E4CEFD22EDF8F5F07A
:1006A300EE8420D21CFEADF075F008EF2FFFED3382
:1006B300FD4007985006D5F0F222C398FD0FD5F000
:1006C300EA22E88FF0A4CC8BF0A42CFCE98EF0A4F2
:1006D3002CFC8AF0EDA42CFCEA8EF0A4CDA8F08BC0
:1006E300F0A42DCC3825F0FDE98FF0A42CCD35F006
:1006F300FCEB8EF0A4FEA9F0EB8FF0A4CFC5F02E97
:10070300CD39FEE43CFCEAA42DCE35F0FDE43CFCFF
:100713002275F008758200EF2FFFEE33FECD33CD47
:10072300CC33CCC58233C5829BED9AEC99E5829894
:10073300400CF582EE9BFEED9AFDEC99FC0FD5F093
:10074300D6E4CEFBE4CDFAE4CCF9A88222B800C10A
:10075300B90059BA002DEC8BF084CFCECDFCE5F077
:10076300CBF97818EF2FFFEE33FEED33FDEC33FCBE
:10077300EB33FB10D703994004EB99FB0FD8E5E467
:10078300F9FA227818EF2FFFEE33FEED33FDEC3349
:10079300FCC933C910D7059BE99A4007EC9BFCE9D8
:1007A3009AF90FD8E0E4C9FAE4CCFB2275F010EF14
:1007B3002FFFEE33FEED33FDCC33CCC833C810D757
:1007C300079BEC9AE899400AED9BFDEC9AFCE899AB
:1007D300F80FD5F0DAE4CDFBE4CCFAE4C8F922EB68
:1007E3009FF5F0EA9E42F0E99D42F0E89C45F02235
:1007F300E8600FECC313FCED13FDEE13FEEF13FFE4
:10080300D8F1228E328F338D348B35AB36AA37A98C
:10081300381205F6700302096FF53AC3648094A099
:100823004009D3E53A648094FF4003753A20E539E3
:1008330075F008A4FFC374809FFFE534D39F400382
:10084300020957AF3AEF3395E0FE75F064E535A43E
:100853002FF582E5F03EF583E58224E3F582E58317
:100863003410F583E493FBE4F53FF53EF53DF53CA9
:10087300FAEB20E0030208F8E539B4011DAF3FAEFF
:100883003EAD3DAC3CF9F81207F3EFF53FEEF53E14
:10089300EDF53DEC4480F53C8072E539B4021DAFC3
:1008A3003FAE3EAD3DAC3CF9F81207F3EFF53FEE3A
:1008B300F53EEDF53DEC44C0F53C8050E539AF3FE6
:1008C300AE3EAD3DAC3CB40315F9F81207F3EFF5BA
:1008D3003FEEF53EEDF53DEC44E0F53C802EA939C5
:1008E300A8011207F3EFF53FEEF53EEDF53DEC44BD
:1008F300F0F53C8017AF3FAE3EAD3DAC3CA939A807
:10090300011207F38F3F8E3E8D3D8C3CEBC313FBEF
:100913000AEA64086003020874E4FAEAC3953950EA
:1009230033EA75F008A4FFC374189FF53BEA75F02A
:1009330008A42534FDC005AF3FAE3EAD3DAC3CA998
:100943003BA8011207F3AB07D005AF33AE32120C4D
:100953008F0A80C774012538F538E43537F537E554
:100963003975F006A42534F53402080E227BFF7A8C
:10097300007976752F017D32120CF87BFF7A0079AE
:1009830076752F017D3C120CF87BFF7A0079767522
:100993002F017D46120CF87BFF7A007976752F01C3
:1009A3007D50120CF87BFF7A007976752F017D5A02
:1009B300120CF87BFF7A007976752F017D64120C97
:1009C300F87BFF7A007976752F017D78120CF87B1E
:1009D300FF7A007976752F017D82120CF87BFF7AFE
:1009E300007976752F017D8C120CF87BFF7A0079E4
:1009F30076752F017D96120CF87BFF7A0079767558
:100A03002F017DA0120CF87BFF7A007976752F01F8
:100A13007DAA120CF87BFF7A007976752F017DB4DD
:100A2300120CF8E4F50AF50E22C0E0C0F0C083C052
:100A330082C0D075D000C000C001C002C003C00492
:100A4300C005C006C007755000754F00754E007590
:100A53004D00C2EDAFBDAEBEE4FCFDE5542FF55431
:100A6300E5533EF553ED3552F552EC3551F551E56D
:100A730056155670021555E5564555703AF5557598
:100A8300560185545085534F85524E85514DF5542B
:100A9300F553F552F5517FE47E0CAB50AA4FA94EA6
:100AA300A84D1206C5E47BFF7A03F9F81207508FAD
:100AB3005A8E598D588C57D007D006D005D004D004
:100AC30003D002D001D000D0D0D082D083D0F0D0D8
:100AD300E032C0E0C0F0C083C082C0D075D000C097
:100AE30000C001C002C003C004C005C006C0077532
:100AF300A720E5F854F0F4440F52F8AF9BEF30E32E
:100B03004DE5176031E5A120E02C300113851B82F0
:100B1300851A83E5A3F0051BE51B7007051A8003FF
:100B230085A326D5170D300305300002D2FA121023
:100B3300318003851719E518601430F91130020963
:100B4300A81CE2F5A3051C800375A3001518D007A4
:100B5300D006D005D004D003D002D001D000D0D02D
:100B6300D082D083D0F0D0E032AE0CAF0D7C007DCC
:100B73000512065E7B007A00790F8E2B8F2C8B2D4E
:100B83008A2E892F753007AF301530EF3395E08FFC
:100B930082F583E412063CAF301530EF3395E08FD6
:100BA30082F583747312063CE530B40315AB2DAAAA
:100BB3002EA92FFF3395E08F82F583742E12063C06
:100BC3008032AE2BAF2C7C007D0A120670ED2430F0
:100BD300FFAB2DAA2EA92FE530FD3395E08D82F5CD
:100BE30083EF12063CAE2BAF2C7C007D0A120670FD
:100BF3008E2B8F2C1530C3E5306480948050A9224E
:100C0300787FE4F6D8FD75815E020C4A021087E412
:100C130093A3F8E493A34003F68001F208DFF48082
:100C230029E493A3F85407240CC8C333C4540F44D2
:100C330020C8834004F456800146F6DFE4800B01AC
:100C430002040810204080900E52E47E019360BCA1
:100C5300A3FF543F30E509541FFEE493A360010E44
:100C6300CF54C025E060A840B8E493A3FAE493A36B
:100C7300F8E493A3C8C582C8CAC583CAF0A3C8C58C
:100C830082C8CAC583CADFE9DEE780BEED1313134A
:100C9300541F2FF541E43EF540854182F583C0831F
:100CA300C082ED5407F9E47EFFA801088005CEC396
:100CB30013CE13D8F9F4FFEEF4FEE05EFEA3E05F7B
:100CC300FFD082D083EEF0A3EFF08541828540838D
:100CD300C083C082EBFEE4A801088005CEC313CE17
:100CE30013D8F9FFE04EFEA3E04FFFD082D083EE8E
:100CF300F0A3EFF0228B2B8A2C892D8D2EE4F53077
:100D03007E007F141210457E007F14852B36852CC0
:100D130037852D38852F39AB307D041208067531A0
:100D230001E52F2401FFE433FEC3E5319FEE648028
:100D3300F87480985018E530852FF0A4252E2531BE
:100D4300FF7B017A007914120E96053180D30530AA
:100D5300E530C3940840A922C0E0C0F0C083C0823C
:100D6300C0D075D000C000C001C002C003C004C021
:100D730005C006C00753C87F53C8FBE55BB4011227
:100D8300755B027F00855C257B02E4FDFC120DBAD6
:100D9300800AE55BB40305C2A6755B00D007D006E5
:100DA300D005D004D003D002D001D000D0D0D0825F
:100DB300D083D0F0D0E032852517852518852519F5
:100DC3008F1C8C1A8D1BEB139201EBA2E19202AFE5
:100DD300A775A720200403121056439A0453F80F53
:100DE300539BEF439A08300305300002C2FA30F9EF
:100DF30015E5186011300209A81CE2F5A3051C8053
:100E030003E4F5A315188FA722E4F52AF529F5289D
:100E1300F527C205750B017BFF7A007978752F01E1
:100E23007D0A120CF87BFF7A007984752F017D14FB
:100E3300120CF8120B6C7B007A00790F752F027D70
:100E43001E120CF8208203120970120FAE80C80222
:100E53001D0000015B00015C00025D0000C100C1D8
:100E630003C104C101C102011700011800011900E7
:100E7300011C00021A00000451000000000255008A
:100E830001020C0000010E00010A00011600020815
:100E93000000008F328B338A3489357F80120FD064
:100EA3008F36E53204FF120F828F37E4FFAB33AA8C
:100EB30034A9358F8275830012060FFE74382FF81C
:100EC300A6060FBF10E7E4F548F549FB7A0079362B
:100ED3007D14020ED88B4A8A4B894CE55B70FC75F6
:100EE3005B018D5CE4FFEFC39D5018AB4AAA4BA98D
:100EF3004C8F8275830012060FFE74002FF8EEF2FA
:100F03000F80E3AFA7E4F5A775CFFF75CEF4D2A6A4
:100F130043C8048FA7228F288D29E52960057529E9
:100F2300FF8003E4F5297F80120FD08F2AE5280480
:100F3300FF120F828F2BE4FF742C2FF8A6290FBF0B
:100F430010F6E4F53CF53DFB7A00792A7D14020E98
:100F5300D885A7271210B21210BC1210C61210D0D7
:100F63001210DA12000E1210EE121077120036125F
:100F730010E41210A512000612006C8527A722EFB9
:100F8300540FC454F0FEEF54F0C4540F4EFF5433C7
:100F930025E025E0FEEF54CC1313543F4EFF545588
:100FA30025E0FEEF54AAC3134EFF22E50A650E6047
:100FB30018120B6C7B007A00790FE50A75F00AA40E
:100FC3002432FD752F01120CF8850E0A228F4A1266
:100FD3000056C3EF951EFDEE951DFCD3ED94C8ECB2
:100FE30094004007434A408E1D8F1EAF4A22C0E043
:100FF3000509E5097002050864644508700E050DCE
:10100300E50D7002050C750800750900D0E032ABE0
:1010130007AA061200568F828E83120056C3EF95DD
:1010230082FFEE9583FEC3EF9BEE9A40ED22755B44
:1010330003AFA7E4F5A775CFFF75CEFC43C8048FB4
:10104300A722E4FDEF2DF582E43EF583E4F00DBD28
:1010530010F222E5A1A2E69203E5F8540C24FF92D4
:1010630000D20422C0E053917F055EE55E70020565
:101073005DD0E032AF885388AFEF5440FEEF541099
:101083004E42882243E340120F54D2AF12109712FC
:101093000E0C80FEC2A6D2B47F0A7E00121012028A
:1010A300001675A20B43A14053F8F343F80122E461
:1010B300F5A77597DE7597AD2275A44075D43F7576
:1010C300FE042275A57175F27D75D58E2275A6482D
:1010D30075A72075CC0822E4F5A775E34075E102F6
:1010E30022758E0A75892243881522E4F5A9E5A99C
:1010F30030E7FB22208302050E32208202051632DE
:101103000020505020C0606010400000000000002C
:10111300702070F810F830F87070000008008070CC
:101123007070F070E0F8F870887038888088887084
:10113300F070F078F88888888888F870007020004C
:101143004000800008003000802010806000000014
:10115300000000004000000000000030206000009C
:10116300000000000020505078C89020202020204C
:101173000000000088608810308040088888606024
:101183001000408808888888908080888820109084
:1011930080D88888888888802088888888880840BC
:1011A3000010500020008000080048788000008074
:1011B300200000000000000040000000000000408C
:1011C3002010400000000000002050F88010A040D4
:1011D3004010A820000000089820082050F080103C
:1011E3008888606020F8200808888880888080804C
:1011F300882010A080A8C88888888880208888884C
:1012030050881040801088001070B070687040885B
:10121300B060309020D0B070F068B070E0888888FB
:101223008888F8402010A80000000000002000502B
:1012330070204000401070F800F80010A820101033
:101243009008F02070780000400010106888F0804B
:1012530088F0F0B8F82010C080A8A888F088F07053
:10126300208888A820502040401000000008C88033
:101273009888E088C82010A020A8C8888898C880CB
:1012830040888888508810802008100000000000E3
:10129300000000F80840A8004010A82060000020CB
:1012A300C8202008F80888408808606020F82020BB
:1012B300A8F8888088808088882010A080889888F3
:1012C30080A8A008208888A8502040402010000053
:1012D3000078888088F84078882010C020A8888803
:1012E300F0788070408888A8207820402010000083
:1012F3000000000000000050F09890002020202003
:101303002000604088204088108888408810602032
:1013130010004000A888888890808088882090905A
:101323008088888880909008208850A888208040F2
:10133300101000000088888888804008882090A0CA
:101343002088888880088008489850A85008404022
:10135300201000000000000000200050201868004A
:1013630010400000400060807070F8701070704092
:1013730070600040080080207088F070E0F8807092
:1013830088706088F8888870806888F020702050A2
:101393008820F870087000FC0078F0707870407056
:1013A3008870609070888870800880F03068205062
:1013B3008870F8302060000000000000000000008A
:1013C300000000000000000000000000000000001A
:1013D300000000000000000000000000000000000A
:1013E30000000000000000000000000000000000FA
:1013F30000000000000000000000000000000000EA
:1014030000000000000000000000000000000000D9
:1014130000000000000000000000000000000000C9
:00000001FF
