:020000040000FA
:100000000200FFEE60030200A4EFB4100040030200
:1000100000A4900019F828287302004902004D023C
:10002000005102005502005902005D020061020009
:100030006502006902006F02007502007B02008108
:1000400002008A02009302009CC290801EC290802F
:1000500020C2908022C2908024C2908026C29080CC
:100060002BC2908030C2908035D290C2918016D23F
:1000700090C2918019D290C291801CD290C291807E
:100080001FD290D291C292C29322D290D291C292A8
:10009000D29322D290D291D292C29322D290D29174
:1000A000D292D293221200EF12010B43E3401201CD
:1000B000157F037E001200CA7F017E00120003201C
:1000C0008304D28780E8C28780E4EE7021EF146059
:1000D0000F14601114601324037013C280C28122B4
:1000E000C280D28122D280C28122D280D281228556
:1000F000A71012011C1201231201278510A72278D4
:100100007FE4F6D8FD7581100200A5E4F5A7759788
:10011000DE7597AD22D294D295D29622E4F5A775DA
:0B012000A4832275A50F2275E3402286
:00000001FF
