:020000040000FA
:10000000020AC68F5F120EE9C3EF9567FDEE956693
:10001000FCD3ED94C8EC94004007435F408E668F9C
:1000200067AF5F2275E68A75A86022020C951210F0
:020030000222AA
:10003300020A2FE4F5A775E34075E10375E2032295
:10004300020E4175A20B43A14053F8F343F801227A
:10005300020986E59154045391FB7595F87594064E
:100063007593F8759206439104429122120F3D2233
:10007300020FA941444320494E5055543A204A4F58
:1000830059535449434B0041444320494E5055541E
:100093003A2045585445524E414C004150504C591A
:1000A30020564F4C544147450028302D332E3356AC
:1000B3002920544F2050312E310000002050502071
:1000C300C060601040000000000000702070F81055
:1000D300F830F870700000080080707070F070E005
:1000E300F8F8708870388880888870F070F078F835
:1000F3008888888888F87000702000400080000895
:1001030000300080201080600000000000000040EC
:10011300000000000000302060000000000000002C
:1001230020505078C8902020202020000000008814
:10013300608810308040088888606010004088081C
:10014300888888908080888820109080D8888888C4
:10015300888880208888888888084000105000207C
:100163000080000800487880000080200000000024
:10017300000000400000000000004020104000008C
:10018300000000002050F88010A0404010A820007C
:100193000000089820082050F080108888606020B4
:1001A300F820080888888088808080882010A080B4
:1001B300A8C88888888880208888885088104080CC
:1001C3001088001070B07068704088B06030902064
:1001D300D0B070F068B070E08888888888F84020D4
:1001E30010A80000000000002000507020400040D4
:1001F3001070F800F80010A82010109008F020707C
:10020300780000400010106888F08088F0F0B8F89B
:100213002010C080A8A888F088F070208888A820C3
:10022300502040401000000008C8809888E088C82B
:100233002010A020A8C8888898C880408888885043
:100243008810802008100000000000000000F8085B
:1002530040A8004010A82060000020C8202008F813
:100263000888408808606020F82020A8F8888088E3
:10027300808088882010A08088988880A8A0082083
:100283008888A8502040402010000000788880888B
:10029300F84078882010C020A88888F078807040C3
:1002A3008888A8207820402010000000000000006B
:1002B300000050F09890002020202020006040880B
:1002C300204088108888408810602010004000A8D3
:1002D300888888908080888820909080888888800B
:1002E300909008208850A8882080401010000000BB
:1002F30088888888804008882090A0208888888003
:10030300088008489850A85008404020100000007A
:10031300000000002000502018680010400000403A
:100323000060807070F8701070704070600040085A
:100333000080207088F070E0F8807088706088F822
:10034300888870806888F0207020508820F87008B2
:100353007000FC0078F07078704070887060907066
:10036300888870800880F0306820508870F83020CA
:10037300600000000000000000000000000000001A
:10038300000000000000000000000000000000006A
:10039300000000000000000000000000000000005A
:1003A300000000000000000000000000000000004A
:1003B300000000000000000000000000000000003A
:1003C300000000000000000000000000000000002A
:1003D300000000000000000000000000000000001A
:1003E3000000000000018003C007E00180018001DC
:1003F30080018001800180018001800000000000F5
:100403000000000000008000C0FFE0FFE000C0002B
:100413008000000000000000000000018001800156
:10042300800180018001800180018007E003C00119
:100433008000000000000000000000000000000039
:1004430000000000000100030007FF07FF03000195
:100453000000000000000000000000000000000099
:1004630000000000000000018003C003C001800001
:100473000000000000000000000000000000000079
:100483000000000000000000000000000000000069
:10049300000000000C000E00070002000000000036
:1004A3000000000000000000000000000000000049
:1004B30000000030007000E0004000000200070070
:1004C3000E000C000000000000000000000000000F
:1004D30000000000000000000000004000E0007089
:1004E30000300000000000000000000000000000D9
:1004F3000000000000000000000000018003C007AE
:10050300E00FF01FF83FFC7FFEFFFFFFFF07E00750
:10051300E007E007E007E007E007E0018001C00132
:10052300E001F001F8FFFCFFFEFFFFFFFFFFFEFF0E
:10053300FC01F801F001E001C0018007E007E007DA
:10054300E007E007E007E007E0FFFFFFFF7FFE3F74
:10055300FC1FF80FF007E003C00180018003800750
:10056300800F801F803FFF7FFFFFFFFFFF7FFF3F65
:10057300FF1F800F800780038001800000000003BD
:10058300C00FF01FF81FF83FFC3FFC3FFC3FFC1F70
:10059300F81FF80FF003C000000000000000000087
:1005A30000000000000000000001FC01F801F00160
:1005B300F801FC01BE011F000F000600000000004F
:1005C3000000000000000000003F801F800F801F1C
:1005D300803F807D80F880F00060000006000F01FE
:1005E3001F01BE01FC01F801F001F801FC0000004D
:1005F30000000000000000000000006000F000F8B0
:10060300807D803F801F800F801F803F800000001F
:100613000000000000000000000000BB010689820A
:100623008A83E0225002E722BBFE02E32289828A08
:1006330083E49322BB010CE58229F582E5833AF535
:1006430083E0225006E92582F8E622BBFE06E9256F
:1006530082F8E222E58229F582E5833AF583E49381
:1006630022F8BB010DE58229F582E5833AF583E89B
:10067300F0225006E92582C8F622BBFE05E9258251
:10068300C8F222BC000BBE0029EF8DF084FFADF051
:1006930022E4CCF875F008EF2FFFEE33FEEC33FCC9
:1006A300EE9DEC984005FCEE9DFE0FD5F0E9E4CEFF
:1006B300FD22EDF8F5F0EE8420D21CFEADF075F0CE
:1006C30008EF2FFFED33FD4007985006D5F0F222D7
:1006D300C398FD0FD5F0EA22E88FF0A4CC8BF0A4E9
:1006E3002CFCE98EF0A42CFC8AF0EDA42CFCEA8E01
:1006F300F0A4CDA8F08BF0A42DCC3825F0FDE98F24
:10070300F0A42CCD35F0FCEB8EF0A4FEA9F0EB8F1A
:10071300F0A4CFC5F02ECD39FEE43CFCEAA42DCEE7
:1007230035F0FDE43CFC2275F008758200EF2FFFE5
:10073300EE33FECD33CDCC33CCC58233C5829BEDB6
:100743009AEC99E58298400CF582EE9BFEED9AFDBA
:10075300EC99FC0FD5F0D6E4CEFBE4CDFAE4CCF96A
:10076300A88222B800C1B90059BA002DEC8BF084DD
:10077300CFCECDFCE5F0CBF97818EF2FFFEE33FEAB
:10078300ED33FDEC33FCEB33FB10D703994004EB63
:1007930099FB0FD8E5E4F9FA227818EF2FFFEE332F
:1007A300FEED33FDEC33FCC933C910D7059BE99A41
:1007B3004007EC9BFCE99AF90FD8E0E4C9FAE4CCD2
:1007C300FB2275F010EF2FFFEE33FEED33FDCC333C
:1007D300CCC833C810D7079BEC9AE899400AED9B25
:1007E300FDEC9AFCE899F80FD5F0DAE4CDFBE4CC04
:1007F300FAE4C8F922EB9FF5F0EA9E42F0E99D4244
:10080300F0E89C45F022E8600FECC313FCED13FD08
:10081300EE13FEEF13FFD8F1228E478F488D498BDD
:100823004AAB4BAA4CA94D12061E7003020985F56B
:100833004FC3648094A04009D3E54F648094FF4084
:1008430003754F20E54E75F008A4FFC374809FFF26
:10085300E549D39F400302096DAF4FEF3395E0FEA7
:1008630075F064E54AA42FF582E5F03EF583E58251
:1008730024EEF582E583340FF583E493FBE4F5542A
:10088300F553F552F551FAEB20E00302090EE54E5C
:10089300B4011DAF54AE53AD52AC51F9F81208096F
:1008A300EFF554EEF553EDF552EC4480F5518072BB
:1008B300E54EB4021DAF54AE53AD52AC51F9F8122C
:1008C3000809EFF554EEF553EDF552EC44C0F5513C
:1008D3008050E54EAF54AE53AD52AC51B40315F94D
:1008E300F8120809EFF554EEF553EDF552EC44E038
:1008F300F551802EA94EA801120809EFF554EEF523
:1009030053EDF552EC44F0F5518017AF54AE53ADAF
:1009130052AC51A94EA8011208098F548E538D521F
:100923008C51EBC313FB0AEA6408600302088AE4F0
:10093300FAEAC3954E5033EA75F008A4FFC374185E
:100943009FF550EA75F008A42549FDC005AF54AEE4
:1009530053AD52AC51A950A801120809AB07D005F9
:10096300AF48AE47120BC90A80C77401254DF54D38
:10097300E4354CF54CE54E75F006A42549F54902DE
:10098300082422C0E0C0F0C083C082C0D075D0006C
:10099300C000C001C002C003C004C005C006C00738
:1009A300756500756400756300756200C2EDAFBDC7
:1009B300AEBEE4FCFDE50B2FF50BE50A3EF50AEDB3
:1009C3003509F509EC3508F508E50D150D70021527
:1009D3000CE50D450C703AF50C750D01850B65851D
:1009E3000A64850963850862F50BF50AF509F508BC
:1009F3007FE47E0CAB65AA64A963A8621206DBE4FC
:100A03007BFF7A03F9F81207668F118E108D0F8C16
:100A13000ED007D006D005D004D003D002D001D029
:100A230000D0D0D082D083D0F0D0E032C0E0C0F08C
:100A3300C083C082C0D075D000C000C001C002C056
:100A430003C004C005C006C00775A720E5F854F02D
:100A5300F4440F52F8AF9BEF30E34DE5196031E5F5
:100A6300A120E02C300113851D82851C83E5A3F0B2
:100A7300051DE51D7007051C800385A326D5190DEB
:100A8300300305300002D2FA120F29800385191BA7
:100A9300E51A601430F911300209A81EE2F5A30526
:100AA3001E800375A300151AD007D006D005D00405
:100AB300D003D002D001D000D0D0D082D083D0F0E8
:100AC300D0E032787FE4F6D8FD75816B020B0D021E
:100AD3000F63E493A3F8E493A34003F68001F208C1
:100AE300DFF48029E493A3F85407240CC8C333C468
:100AF300540F4420C8834004F456800146F6DFE4D3
:100B0300800B0102040810204080900DC9E47E018F
:100B13009360BCA3FF543F30E509541FFEE493A345
:100B230060010ECF54C025E060A840B8E493A3FA57
:100B3300E493A3F8E493A3C8C582C8CAC583CAF0E3
:100B4300A3C8C582C8CAC583CADFE9DEE780BEE49D
:100B5300F53CF53DF53E753F0C120F987428253D85
:100B6300F8A607053DE53D7002053C7B007A007958
:100B730028AD3F754401120C32E53D6414453C60D9
:100B8300097427253DF8E6B40ACF740C253FF53FD9
:100B9300E4353EF53EE4F53CF53D7FBD8F288F29D6
:100BA3008F2A8F2B8F2C8F2D8F2E8F2F8F308F315E
:100BB3008F328F338F348F358F368F378F388F390E
:100BC3008F3A8F3B8093ED131313541F2FF556E485
:100BD3003EF555855682F583C083C082ED5407F9EF
:100BE300E47EFFA801088005CEC313CE13D8F9F421
:100BF300FFEEF4FEE05EFEA3E05FFFD082D083EE63
:100C0300F0A3EFF0855682855583C083C082EBFE47
:100C1300E4A801088005CEC313CE13D8F9FFE04E34
:100C2300FEA3E04FFFD082D083EEF0A3EFF0228B40
:100C3300408A4189428D43E4F5457E007F14120FBB
:100C4300767E007F1485404B85414C85424D85441B
:100C53004EAB457D0412081C754601E5442401FF93
:100C6300E433FEC3E5469FEE6480F8748098501821
:100C7300E5458544F0A425432546FF7B017A0079A9
:100C830014120D46054680D30545E545C394084037
:100C9300A922C0E0C0F0C083C082C0D075D000C01C
:100CA30000C001C002C003C004C005C006C0075392
:100CB300C87F53C8FBE568B401127568027F0085DD
:100CC30069257B02E4FDFC120CF4800AE568B40399
:100CD30005C2A6756800D007D006D005D004D0039E
:100CE300D002D001D000D0D0D082D083D0F0D0E0D9
:100CF3003285251985251A85251B8F1E8C1C8D1D74
:100D0300EB139201EBA2E19202AFA775A720200497
:100D130003120F87439A0453F80F539BEF439A0828
:100D2300300305300002C2FA30F915E51A601130BC
:100D33000209A81EE2F5A3051E8003E4F5A3151A14
:100D43008FA7228F478B488A49894A7F80120003E5
:100D53008F4BE54704FF120E9E8F4CE4FFAB48AA6E
:100D630049A94A8F82758300120637FE744D2FF806
:100D7300A6060FBF10E7E4F55DF55EFB7A00794B3D
:100D83007D14020D888B5F8A608961E56870FC754C
:100D930068018D69E4FFEFC39D5018AB5FAA60A99A
:100DA300618F82758300120637FE74002FF8EEF20E
:100DB3000F80E3AFA7E4F5A775CFFF75CEF4D2A6F6
:100DC30043C8048FA722026600000168000169007E
:100DD300026A0000C100C103C104C101C1020119BB
:100DE30000011A00011B00011E00021C0000040880
:100DF30000000000020C00010412000000000216B3
:100E03000000008F298D2AE52A6005752AFF8003DB
:100E1300E4F52A7F801200038F2BE52904FF120ECD
:100E23009E8F2CE4FF742D2FF8A62A0FBF10F6E433
:100E3300F53DF53EFB7A00792B7D14020D88C0D079
:100E430075D000C007AFA7208205B20575180175DC
:100E5300A70020050575BB0D800630050375BB078C
:100E630075A71053E6FD8FA7D007D0D03285A728EA
:100E7300120FC7120FD1120FDB120FE51200361239
:100E83000F50120FF9120EFF120056120FEF12003D
:100E93004612100A1200248528A722EF540FC454C7
:100EA300F0FEEF54F0C4540F4EFF543325E025E019
:100EB300FEEF54CC1313543F4EFF545525E0FEEF81
:100EC30054AAC3134EFF22AB07AA06120EE98F8260
:100ED3008E83120EE9C3EF9582FFEE9583FEC3EF77
:100EE3009BEE9A40ED22AFA775A71053E67FAD6B3B
:100EF300AC6A43E6808FA7AE04AF0522AF88538860
:100F0300AF758C01758D96EF5440FEEF54104E4231
:100F13008822E4F528E4FDAF28120E060528E5280B
:100F2300C3948040F022756803AFA7E4F5A775CF9B
:100F3300FF75CEFC43C8048FA722BF0A083099FD72
:100F4300C29975990D3099FDC2998F992275B30194
:100F530075BB0D75DF3F75BC0875B98143E8802209
:100F6300120E70D2B4D2A2D299D2AF120FB9120B11
:100F73005280FBE4FDEF2DF582E43EF583E4F00DB2
:100F8300BD10F222E5A1A2E69203E5F8540C24FF7A
:100F93009200D2042210060B12002EBF0D027F0A0C
:100FA30002006FAF1F22C0E053917F056BE56B70AA
:100FB30002056AD0E032C2A6D2B47F0A7E00120EC6
:100FC300CA020F15E4F5A77597DE7597AD2275A4D0
:100FD3005075D40F75FE042275A57175F27D75D514
:100FE3008E2275A64875A72075CC0822758E0A75C2
:100FF300892243885022E4F5A9E5A930E7FB223092
:1010030098FDAF99C2982243981022002050502097
:10101300C060601040000000000000702070F810F5
:10102300F830F870700000080080707070F070E0A5
:10103300F8F8708870388880888870F070F078F8D5
:101043008888888888F87000702000400080000835
:10105300003000802010806000000000000000408D
:1010630000000000000030206000000000000000CD
:1010730020505078C89020202020200000000088B5
:1010830060881030804008888860601000408808BD
:10109300888888908080888820109080D888888865
:1010A300888880208888888888084000105000201D
:1010B30000800008004878800000802000000000C5
:1010C300000000400000000000004020104000002D
:1010D300000000002050F88010A0404010A820001D
:1010E3000000089820082050F08010888860602055
:1010F300F820080888888088808080882010A08055
:10110300A8C888888888802088888850881040806C
:101113001088001070B07068704088B06030902004
:10112300D0B070F068B070E08888888888F8402074
:1011330010A8000000000000200050702040004074
:101143001070F800F80010A82010109008F020701C
:10115300780000400010106888F08088F0F0B8F83C
:101163002010C080A8A888F088F070208888A82064
:10117300502040401000000008C8809888E088C8CC
:101183002010A020A8C8888898C8804088888850E4
:101193008810802008100000000000000000F808FC
:1011A30040A8004010A82060000020C8202008F8B4
:1011B3000888408808606020F82020A8F888808884
:1011C300808088882010A08088988880A8A0082024
:1011D3008888A8502040402010000000788880882C
:1011E300F84078882010C020A88888F07880704064
:1011F3008888A8207820402010000000000000000C
:10120300000050F0989000202020202000604088AB
:10121300204088108888408810602010004000A873
:1012230088888890808088882090908088888880AB
:10123300909008208850A88820804010100000005B
:1012430088888888804008882090A02088888880A3
:10125300088008489850A85008404020100000001B
:1012630000000000200050201868001040000040DB
:101273000060807070F870107070407060004008FB
:101283000080207088F070E0F8807088706088F8C3
:10129300888870806888F0207020508820F8700853
:1012A3007000FC0078F07078704070887060907007
:1012B300888870800880F0306820508870F830206B
:1012C30060000000000000000000000000000000BB
:1012D300000000000000000000000000000000000B
:1012E30000000000000000000000000000000000FB
:1012F30000000000000000000000000000000000EB
:1013030000000000000000000000000000000000DA
:1013130000000000000000000000000000000000CA
:0B1323000000000000000000000000BF
:00000001FF
