:020000040000FA
:06000000020E9E021437FF
:03000B000212C519
:03001300021431A3
:03002B00020FF6CB
:03003300020D704B
:03005300020CC7D5
:0300730002137EF7
:100300007CFF7DFFDDFEDCFA227E32120300DEFB85
:100310002220005468656F2026204A6F686E0053C3
:10032000746F7077617463682050726F6A6563746C
:10033000000020505020C06060104000000000000D
:1003400000702070F810F830F8707000000800801D
:10035000707070F070E0F8F8708870388880888865
:1003600070F070F078F88888888888F870007020BD
:1003700000400080000800300080201080600000F5
:10038000000000000040000000000000302060007D
:1003900000000000000020505078C890202020204D
:1003A0002000000000886088103080400888886045
:1003B0006010004088088888889080808888201095
:1003C0009080D8888888888880208888888888084D
:1003D0004000105000200080000800487880000095
:1003E000802000000000000000400000000000002D
:1003F000402010400000000000002050F88010A0B5
:10040000404010A820000000089820082050F080EC
:10041000108888606020F82008088888808880809C
:1004200080882010A080A8C8888888888020888834
:100430008850881040801088001070B0706870403C
:1004400088B060309020D0B070F068B070E08888DC
:10045000888888F8402010A80000000000002000D4
:100460005070204000401070F800F80010A82010D4
:10047000109008F02070780000400010106888F09C
:100480008088F0F0B8F82010C080A8A888F088F024
:1004900070208888A820502040401000000008C824
:1004A000809888E088C82010A020A8C8888898C8AC
:1004B0008040888888508810802008100000000044
:1004C00000000000F80840A8004010A820600000CC
:1004D00020C8202008F80888408808606020F8209C
:1004E00020A8F8888088808088882010A08088983C
:1004F0008880A8A008208888A850204040201000AC
:10050000000078888088F84078882010C020A8886B
:1005100088F0788070408888A820782040201000DB
:10052000000000000000000050F098900020202003
:100530002020006040882040881088884088106013
:100540002010004000A888888890808088882090AB
:10055000908088888880909008208850A888208083
:10056000401010000000888888888040088820900B
:10057000A02088888880088008489850A8500840A3
:1005800040201000000000000000200050201868EB
:100590000010400000400060807070F870107070B3
:1005A0004070600040080080207088F070E0F880A3
:1005B0007088706088F8888870806888F020702063
:1005C000508820F870087000FC0078F07078704057
:1005D000708870609070888870800880F030682023
:1005E000508870F83020600000000000000000001B
:1005F00000000000000000000000000000000000FB
:1006000000000000000000000000000000000000EA
:1006100000000000000000000000000000000000DA
:1006200000000000000000000000000000000000CA
:1006300000000000000000000000000000000000BA
:1006400000000000000000000000000000000000AA
:100650000000000000000000000000018003C0074F
:10066000E001800180018001800180018001800122
:100670008000000000000000000000008000C0FFBB
:10068000E0FFE000C000800000000000000000006B
:1006900000018001800180018001800180018001D2
:1006A0008007E003C001800000000000000000009F
:1006B000000000000000000000000001000300072F
:1006C000FF07FF0300010000000000000000000021
:1006D0000000000000000000000000000001800396
:1006E000C003C00180000000000000000000000006
:1006F00000000000000000000000000000000000FA
:10070000000000000000000000000C000E000700C8
:1007100002000000000000000000000000000000D7
:1007200000000000000000000030007000E0004009
:100730000000020007000E000C0000000000000096
:1007400000000000000000000000000000000000A9
:10075000004000E0007000300000000000000000D9
:100760000000000000000000000000000000000089
:1007700000018003C007E00FF01FF83FFC7FFEFF81
:10078000FFFFFF07E007E007E007E007E007E007FB
:10079000E0018001C001E001F001F8FFFCFFFEFF75
:1007A000FFFFFFFFFEFFFC01F801F001E001C001C7
:1007B0008007E007E007E007E007E007E007E0FF69
:1007C000FFFFFF7FFE3FFC1FF80FF007E003C001B3
:1007D000800180038007800F801F803FFF7FFFFF25
:1007E000FFFFFF7FFF3FFF1F800F80078003800117
:1007F000800000000003C00FF01FF81FF83FFC3F0F
:10080000FC3FFC3FFC1FF81FF80FF003C000000086
:1008100000000000000000000000000000000001D7
:10082000FC01F801F001F801FC01BE011F000F00FE
:100830000600000000000000000000000000003F73
:10084000801F800F801F803F807D80F880F00060D7
:10085000000006000F011F01BE01FC01F801F001BC
:10086000F801FC0000000000000000000000000093
:10087000006000F000F8807D803F801F800F801FA7
:10088000803F800000000000000000000000000029
:1008900000BB010689828A83E0225002E722BBFE68
:1008A00002E32289828A83E49322BB010CE5822938
:1008B000F582E5833AF583E0225006E92582F8E6E1
:1008C00022BBFE06E92582F8E222E58229F582E5CF
:1008D000833AF583E49322F8BB010DE58229F58282
:1008E000E5833AF583E8F0225006E92582C8F6222E
:1008F000BBFE05E92582C8F222EF8DF0A4A8F0CF57
:100900008CF0A428CE8DF0A42EFE22BC000BBE00DD
:1009100029EF8DF084FFADF022E4CCF875F008EFFC
:100920002FFFEE33FEEC33FCEE9DEC984005FCEE21
:100930009DFE0FD5F0E9E4CEFD22EDF8F5F0EE8452
:1009400020D21CFEADF075F008EF2FFFED33FD4017
:1009500007985006D5F0F222C398FD0FD5F0EA2291
:10096000E88FF0A4CC8BF0A42CFCE98EF0A42CFC36
:100970008AF0EDA42CFCEA8EF0A4CDA8F08BF0A4B4
:100980002DCC3825F0FDE98FF0A42CCD35F0FCEB13
:100990008EF0A4FEA9F0EB8FF0A4CFC5F02ECD39D8
:1009A000FEE43CFCEAA42DCE35F0FDE43CFC2275CF
:1009B000F008758200EF2FFFEE33FECD33CDCC3340
:1009C000CCC58233C5829BED9AEC99E58298400CA8
:1009D000F582EE9BFEED9AFDEC99FC0FD5F0D6E486
:1009E000CEFBE4CDFAE4CCF9A88222B800C1B9006C
:1009F00059BA002DEC8BF084CFCECDFCE5F0CBF9CD
:100A00007818EF2FFFEE33FEED33FDEC33FCEB33C4
:100A1000FB10D703994004EB99FB0FD8E5E4F9FAF2
:100A2000227818EF2FFFEE33FEED33FDEC33FCC9D7
:100A300033C910D7059BE99A4007EC9BFCE99AF96A
:100A40000FD8E0E4C9FAE4CCFB2275F010EF2FFFD9
:100A5000EE33FEED33FDCC33CCC833C810D7079B43
:100A6000EC9AE899400AED9BFDEC9AFCE899F80FA6
:100A7000D5F0DAE4CDFBE4CCFAE4C8F922EB9FF53B
:100A8000F0EA9E42F0E99D42F0E89C45F022E860E1
:100A90000FECC313FCED13FDEE13FEEF13FFD8F1C3
:100AA000228E328F338D348B35AB36AA37A938126C
:100AB00008917003020C0AF53AC3648094A04009BF
:100AC000D3E53A648094FF4003753A20E53975F028
:100AD00008A4FFC374809FFFE534D39F4003020B3B
:100AE000F2AF3AEF3395E0FE75F064E535A42FF5EB
:100AF00082E5F03EF583E5822425F582E583341412
:100B0000F583E493FBE4F53FF53EF53DF53CFAEB68
:100B100020E003020B93E539B4011DAF3FAE3EADBB
:100B20003DAC3CF9F8120A8EEFF53FEEF53EEDF5DF
:100B30003DEC4480F53C8072E539B4021DAF3FAE18
:100B40003EAD3DAC3CF9F8120A8EEFF53FEEF53EB6
:100B5000EDF53DEC44C0F53C8050E539AF3FAE3E8D
:100B6000AD3DAC3CB40315F9F8120A8EEFF53FEE3B
:100B7000F53EEDF53DEC44E0F53C802EA939A801A9
:100B8000120A8EEFF53FEEF53EEDF53DEC44F0F543
:100B90003C8017AF3FAE3EAD3DAC3CA939A8011239
:100BA0000A8E8F3F8E3E8D3D8C3CEBC313FB0AEAD1
:100BB00064086003020B0FE4FAEAC395395033EA84
:100BC00075F008A4FFC374189FF53BEA75F008A4FC
:100BD0002534FDC005AF3FAE3EAD3DAC3CA93BA8C2
:100BE00001120A8EAB07D005AF33AE32120F2A0ABC
:100BF00080C774012538F538E43537F537E53975A0
:100C0000F006A42534F534020AA9227BFF7A037981
:100C100011752F017D32120F937BFF7A03791175C5
:100C20002F017D3C120F937BFF7A037911752F0101
:100C30007D46120F937BFF7A037911752F017D504A
:100C4000120F937BFF7A037911752F017D5A120FD2
:100C5000937BFF7A037911752F017D64120F937BCB
:100C6000FF7A037911752F017D78120F937BFF7A3C
:100C7000037911752F017D82120F937BFF7A03791F
:100C800011752F017D8C120F937BFF7A03791175FB
:100C90002F017D96120F937BFF7A037911752F0137
:100CA0007DA0120F937BFF7A037911752F017DAA26
:100CB000120F937BFF7A037911752F017DB4120F08
:100CC00093E4F50AF50E22C0E0C0F0C083C082C0F4
:100CD000D075D000C000C001C002C003C004C00570
:100CE000C006C007755000754F00754E00754D0069
:100CF000C2EDAFBDAEBEE4FCFDE5542FF554E553A7
:100D00003EF553ED3552F552EC3551F551E556159A
:100D10005670021555E5564555703AF5557556010C
:100D200085545085534F85524E85514DF554F5539A
:100D3000F552F5517FE47E0CAB50AA4FA94EA84D59
:100D4000120960E47BFF7A03F9F81209EB8F5A8EDF
:100D5000598D588C57D007D006D005D004D003D079
:100D600002D001D000D0D0D082D083D0F0D0E032F9
:100D7000C0E0C0F0C083C082C0D075D000C000C049
:100D800001C002C003C004C005C006C00775A7208B
:100D9000E5F854F0F4440F52F8AF9BEF30E34DE523
:100DA000176031E5A120E02C300113851B82851AE4
:100DB00083E5A3F0051BE51B7007051A800385A3D7
:100DC00026D5170D300305300002D2FA12134880E1
:100DD00003851719E518601430F911300209A81CB1
:100DE000E2F5A3051C800375A3001518D007D006F3
:100DF000D005D004D003D002D001D000D0D0D08212
:100E0000D083D0F0D0E032AE0CAF0D7C007D051267
:100E100008F97B007A00790F8E2B8F2C8B2D8A2E70
:100E2000892F753007AF301530EF3395E08F82F59D
:100E300083E41208D7AF301530EF3395E08F82F599
:100E40008374731208D7E530B40315AB2DAA2EA90D
:100E50002FFF3395E08F82F583742E1208D78032EE
:100E6000AE2BAF2C7C007D0A12090BED2430FFABBA
:100E70002DAA2EA92FE530FD3395E08D82F583EF65
:100E80001208D7AE2BAF2C7C007D0A12090B8E2BDB
:100E90008F2C1530C3E5306480948050A922787F70
:100EA000E4F6D8FD75815E020EE502139EE493A37D
:100EB000F8E493A34003F68001F208DFF48029E40C
:100EC00093A3F85407240CC8C333C4540F4420C858
:100ED000834004F456800146F6DFE4800B010204EF
:100EE00008102040809010F5E47E019360BCA3FFC1
:100EF000543F30E509541FFEE493A360010ECF5424
:100F0000C025E060A840B8E493A3FAE493A3F8E412
:100F100093A3C8C582C8CAC583CAF0A3C8C582C87E
:100F2000CAC583CADFE9DEE780BEED131313541F81
:100F30002FF541E43EF540854182F583C083C082B0
:100F4000ED5407F9E47EFFA801088005CEC313CE57
:100F500013D8F9F4FFEEF4FEE05EFEA3E05FFFD0ED
:100F600082D083EEF0A3EFF0854182854083C08379
:100F7000C082EBFEE4A801088005CEC313CE13D8CF
:100F8000F9FFE04EFEA3E04FFFD082D083EEF0A346
:100F9000EFF0228B2B8A2C892D8D2EE4F5307E00EC
:100FA0007F1412135C7E007F14852B36852C3785C9
:100FB0002D38852F39AB307D04120AA1753101E53A
:100FC0002F2401FFE433FEC3E5319FEE6480F87403
:100FD00080985018E530852FF0A4252E2531FF7B11
:100FE000017A007914121139053180D30530E530CA
:100FF000C3940840A922C0E0C0F0C083C082C0D022
:1010000075D000C000C001C002C003C004C005C04C
:1010100006C00753C87F53C8FBE55BB40112755B7C
:10102000027F00855C257B02E4FDFC121055800ADE
:10103000E55BB40305C2A6755B00D007D006D005FA
:10104000D004D003D002D001D000D0D0D082D08341
:10105000D0F0D0E0328525178525188525198F1CFD
:101060008C1A8D1BEB139201EBA2E19202AFA775D4
:10107000A72020040312136D439A0453F80F539BC7
:10108000EF439A08300305300002C2FA30F915E543
:10109000186011300209A81CE2F5A3051C8003E4C6
:1010A000F5A315188FA722E4F52AF529F528F527C9
:1010B000C205750B011211F7E4F50CF50D7BFF7AF3
:1010C000037913752F017D0A120F937BFF7A037941
:1010D0001F752F017D14120F93120E077B007A00EB
:1010E000790F752F027D1E120F93208203120C0BB5
:1010F00012128280C8021D0000015B00015C000228
:101100005D0000C100C103C104C101C1020117009B
:10111000011800011900011C00021A00000451000E
:1011200000000002550001020C0000010E00010A3F
:101130000001160002080000008F328B338A3489C8
:10114000357F801212A48F36E53204FF1212568FBB
:1011500037E4FFAB33AA34A9358F827583001208B8
:10116000AAFE74382FF8A6060FBF10E7E4F548F57D
:1011700049FB7A0079367D1402117B8B4A8A4B89B0
:101180004CE55B70FC755B018D5CE4FFEFC39D502B
:1011900018AB4AAA4BA94C8F827583001208AAFE8D
:1011A00074002FF8EEF20F80E3AFA7E4F5A775CF38
:1011B000FF75CEF4D2A643C8048FA7228F288D29AD
:1011C000E52960057529FF8003E4F5297F80121267
:1011D000A48F2AE52804FF1212568F2BE4FF742CEB
:1011E0002FF8A6290FBF10F6E4F53CF53DFB7A0079
:1011F000792A7D1402117B12141512030912142A84
:1012000012030912141512030912142A12030912E7
:10121000141C12030912142A1203091214231203B4
:101220000912142A1203092285A7271213C91213BF
:10123000D31213DD1213E71213F112144112140525
:1012400012138E1213051213FB1213BC12143D124B
:10125000140E8527A722EF540FC454F0FEEF54F06C
:10126000C4540F4EFF543325E025E0FEEF54CC1359
:1012700013543F4EFF545525E0FEEF54AAC3134EBE
:10128000FF22E50A650E6018120E077B007A0079CE
:101290000FE50A75F00AA42432FD752F01120F9391
:1012A000850E0A228F4A12131EC3EF951EFDEE957E
:1012B0001DFCD3ED94C8EC94004007434A408E1DBA
:1012C0008F1EAF4A22C0E00509E5097002050864D7
:1012D000644508700E050DE50D7002050C750800DB
:1012E000750900D0E032AB07AA0612131E8F828E5A
:1012F0008312131EC3EF9582FFEE9583FEC3EF9B0F
:10130000EE9A40ED22E59154045391FB7595F875E2
:1013100094067593F8759206439104429122AFA703
:1013200075A71053E67FAD5EAC5D43E6808FA7AE38
:1013300004AF0522E4F527E4FDAF271211BC052711
:10134000E527C3948040F022755B03AFA7E4F5A7BF
:1013500075CFFF75CEFC43C8048FA722E4FDEF2DA7
:10136000F582E43EF583E4F00DBD10F222E5A1A282
:10137000E69203E5F8540C24FF9200D20422C0E068
:1013800053917F055EE55E7002055DD0E032AF8867
:101390005388AFEF5440FEEF54104E42882243E38F
:1013A00040121228D2AF1213AE1210A780FEC2A6AE
:1013B000D2B47F0A7E001212E602133475A20B43E8
:1013C000A14053F8F343F80122E4F5A77597DE75C1
:1013D00097AD2275A44075D43F75FE042275A571A2
:1013E00075F27D75D58E2275A64875A72075CC0837
:1013F00022E4F5A775E34075E10222758E0A75892E
:101400002243881522E4F5A9E5A930E7FB2275E619
:101410008075A86722D294D295C29622C294D295A2
:10142000C29622C294D295D29622D294D295D296C6
:1014300022208302050E3220820205163275E43224
:101440002275EF04220020505020C0606010400040
:101450000000000000702070F810F830F870700084
:1014600000080080707070F070E0F8F870887038D4
:101470008880888870F070F078F88888888888F884
:1014800070007020004000800008003000802010B4
:10149000806000000000000000400000000000002C
:1014A0003020600000000000000020505078C890FC
:1014B000202020202000000000886088103080401C
:1014C000088888606010004088088888889080803C
:1014D000888820109080D88888888888802088888C
:1014E00088888808400010500020008000080048CC
:1014F0007880000080200000000000000040000014
:1015000000000000402010400000000000002050BB
:10151000F88010A0404010A8200000000898200883
:101520002050F080108888606020F82008088888A3
:101530008088808080882010A080A8C888888888BB
:10154000802088888850881040801088001070B0F3
:101550007068704088B060309020D0B070F068B093
:1015600070E08888888888F8402010A80000000073
:10157000000020005070204000401070F800F8007B
:1015800010A82010109008F0207078000040001083
:10159000106888F08088F0F0B8F82010C080A8A803
:1015A00088F088F070208888A820502040401000E3
:1015B000000008C8809888E088C82010A020A8C82B
:1015C000888898C8804088888850881080200810B3
:1015D0000000000000000000F80840A8004010A82B
:1015E0002060000020C8202008F808884088086093
:1015F0006020F82020A8F8888088808088882010C3
:10160000A08088988880A8A008208888A8502040BA
:1016100040201000000078888088F84078882010EA
:10162000C020A88888F0788070408888A82078201A
:1016300040201000000000000000000050F09890D2
:1016400000202020202000604088204088108888CA
:10165000408810602010004000A888888890808012
:101660008888209090808888888090900820885072
:10167000A88820804010100000008888888880405A
:1016800008882090A0208888888008800848985082
:10169000A85008404020100000000000000020007A
:1016A000502018680010400000400060807070F802
:1016B000701070704070600040080080207088F0EA
:1016C00070E0F8807088706088F88888708068881A
:1016D000F0207020508820F870087000FC0078F02E
:1016E0007078704070887060907088887080088012
:1016F000F0306820508870F8302060000000000052
:1017000000000000000000000000000000000000D9
:1017100000000000000000000000000000000000C9
:1017200000000000000000000000000000000000B9
:1017300000000000000000000000000000000000A9
:101740000000000000000000000000000000000099
:101750000000000000000000000000000000000089
:05176000000000000084
:00000001FF
